:1000000077EF07F068961200046ED8CF05F0E0CFC6
:1000100006F00001E9CF0CF0EACF07F0E1CF08F0DD
:10002000E2CF09F0D9CF0AF0DACF0BF0F3CF12F01C
:10003000F4CF13F0FACF14F000C00EF001C00FF0AF
:1000400002C010F003C011F0A0AA2AEF00F0A1BA7C
:10005000A5EF06F00EC000F00FC001F010C002F0D6
:1000600011C003F00CC0E9FF07C0EAFF078E08C00B
:10007000E1FF09C0E2FF0AC0D9FF0BC0DAFF12C0DE
:10008000F3FF13C0F4FF14C0FAFF045006C0E0FFF2
:1000900005C0D8FF1000F76AA60FF66E000EF72213
:1000A0000900F55012000003FFFFFFFFFFFFFFFFF5
:1000B000FFFFFFFFFFFFF76AC60FF66E000EF72285
:1000C0000900F550120000FFFFFFFFFFFFFFFFFFD9
:1000D000FFFFFFFFFFFFF76AE60FF66E000EF72245
:1000E0000900F55012004000080000000000000068
:1000F0000000000000000000000000000000000000
:10010000000000000000F76A160FF66E010EF722DD
:100110000900F5501200400000000000000000003F
:1001200000000000000000000000000000000000CF
:10013000000000000000F76A460FF66E010EF7227D
:100140000900F550120005010905A1010901A100EE
:1001500009300931150026FF00350046FF007508FB
:1001600095028102C005091901290815002501958C
:1001700008750181021909290A15002501950875DC
:10018000018102C0F76A940FF66E010EF722090092
:10019000F55012000000F76AA60FF66E010EF72266
:1001A0000900F55012003E00F76AB80FF66E010E16
:1001B000F7220900F550120009022200010100C0D7
:1001C00032090400000103010200092100010001BD
:1001D000223E000705810308000AF76AEA0FF66E5F
:1001E000010EF7220900F55012000100F76AFC0F1A
:1001F000F66E010EF7220900F55012001200F76AA0
:100200000E0FF66E020EF7220900F55012001201D1
:10021000100100000040D8040B00000101020001A1
:10022000F76A300FF66E020EF7220900F550120041
:1002300000040C00F76A440FF66E020EF722090064
:10024000F55012000403090408034300430053005F
:1002500028034400650076005300740069006300C1
:100260006B002000410072006300610064006500C3
:100270002000500072006F006D92699468A402D053
:100280006894FCD7B1EF06F0400E0401016F040E34
:10029000036F100E026F880E006F046B040E076F61
:1002A000500E066F0001120070A002D0EDDF7090BA
:1002B000689AB8EF06F06A6A6892BDEF06F0499056
:1002C00048BE4980489E4850100803E2000E016E67
:1002D00020D049A010D0036A4850F2CF4AF0F29ED5
:1002E000DADE4ABEF28EFF0802E1000E01D0010EF6
:1002F000016E0FD00ED0036A4850F2CF4AF0F29E42
:10030000DADE4ABEF28EFF0802E1000E01D0010ED5
:10031000016E1200036A4750700FE96E0F0E032042
:10032000EA6EEF6A47C048F0CADF015218E0475052
:10033000080DF350496AE96E040E4924EA6EEF6A2B
:100340004750080DF350496A486E040E4826000EC7
:10035000492248C0E9FF040E4924EA6EEF6A120000
:10036000010E466E46500F0805E346C047F0D2DF47
:10037000462AF8D71200226A216A3C6A3C520AE1F6
:10038000036A3C50230FE96E000E0320EA6EEF6A09
:100390003C2AF4D7186A010E196E176A12006A6AAD
:1003A000686A9F0E6B6E3D0E696E6E6AD9DFE3DF81
:1003B000160E706E68A602D025DEFCD76D9864DF3D
:1003C000030E1C6EC2EF06F0698468986D82C7EF59
:1003D00006F0689CCCEF06F041C01DF012001D68CD
:1003E00012003F6A2150221046E03F503F0843E38D
:1003F0001A50FC0F2EE2040F46EF02F020C003F06B
:100400001F50F2CF41F0F29ECFDE41BEF28E406E21
:1004100020D020C003F01F50F2CF41F0F29E8BDEBF
:1004200041BEF28E406E15D020C003F01F50F2CFB7
:1004300041F0F29EFFDE41BEF28E406E0AD020C037
:1004400003F01F50F2CF41F0F29ED9DE41BEF28E92
:10045000406E1F2AD8B4202A2150D8B42206210683
:100460003F503F2A036A500FE96E040E0320EA6EE4
:1004700040C0EFFFB7D72150221004E13F504008A1
:1004800001E0176A3FC041F0A7DF1200E824F76AD5
:10049000F736A70FF66E040EF7220A00F550FA6E33
:1004A0000800F550F96EFC03120428043E04206A8B
:1004B0001F6A1A6A04011351010A000109E0030AC4
:1004C0000DE0010A0FE0220A2BE0030A4FE07AD088
:1004D000226A120E216E030E1A6E76D0226A220E46
:1004E000216E72D0020E1A6E036A04011251F2CF0D
:1004F0003FF0F29E000194DE3FBEF28E036A1F6E53
:1005000003C020F020C003F01F50F2CF3FF0F29E56
:1005100091DE3FBEF28E036A216E03C022F054D0FA
:10052000D89004011235036AF2CF3FF0F29E000129
:100530005DDE0900F5CF03F03FBEF28E1F6E03C0F3
:1005400020F01F3C02D020520FE020C003F01F50CB
:10055000F2CF3FF0F29E28DE3FBEF28E036A216E9C
:1005600003C022F031D002D03ADF3DD0D890040150
:100570001435036AF2CF3FF0F29E000103DE09005A
:10058000F5CF03F03FBEF28E1F6E03C020F01F3C7C
:1005900002D0205215E0010E1A6ED89004011435D5
:1005A000036AF2CF3FF0F29E0001F5DD0900F5CFBE
:1005B00003F03FBEF28E216E03C022F005D002D0C0
:1005C0000EDF11D00CDF0FD00401175308E12252C7
:1005D00003E12150165D03E2226A16C421F0010EE8
:1005E000176E0001FEDE12003E5204E1040E1C6E86
:1005F000B7DED1D0050E1C6E040E416E900E406E1B
:10060000010E3F6E3F500F08D8A0C5D03FC047F045
:1006100081DE426A036A3F50F2CF46F0F29E4BDD24
:1006200046BEF28EFF0859E0040E426ED8903F3469
:10063000036AF2CF46F0F29E66DD0900F5CF03F0C3
:1006400046BEF28E436E03C044F03F50080DF35097
:10065000476A466E010E4624016E000E4720036E67
:1006600001C0E9FF040E0324EA6E43C0EFFF3F50D0
:10067000080DF350476A466E020E4624016E000EC6
:100680004720036E01C0E9FF040E0324EA6E41C057
:10069000ECFFED5240C0EFFFD8903F34036AF2CF39
:1006A00046F0F29E30DD0900F5CF03F046BEF28E33
:1006B000402603504122880E456E44A001D045805B
:1006C00044A201D045823F50080DF350476AE96EBD
:1006D000040E4724EA6E45C0EFFF036A3F50F2CF95
:1006E00046F0F29ED8DC46BEF28EFF0839E0428228
:1006F0003F50080DF350476A466E040E4626000E22
:100700004722020E4624016E000E4720036E01C0F0
:10071000E9FF040E0324EA6E41C0ECFFED5240C035
:10072000EFFFD8903F34036AF2CF46F0F29ED3DC5D
:100730000900F5CF03F046BEF28E40260350412259
:100740003F50080DF350476A466E040E4626000ED1
:10075000472246C0E9FF040E4724EA6E400EEF6EC2
:100760004250060802E10E0E426E036A3F50F2CF7D
:1007700046F0F29E90DC46BEF28E010801E042880F
:10078000036A3F50700FE96E0F0E0320EA6E42C0FD
:10079000EFFF3F2A37D71AEF04F004011151000A86
:1007A00000010DE0010A14E0020A1FE0060A29E038
:1007B000030A2EE00E0A2EE0010A32E040D019C0F2
:1007C00050F40401516B020E416E000105DE38D079
:1007D0000401122D07D0010E1916416A0001FCDD3B
:1007E00003D004010001FBDD2BD00401122D06D043
:1007F0001982416A0001F0DD03D004010001EFDD40
:100800001FD0020E176E12C41EF0416AE5DD18D02B
:100810004EDE16D018C050F4010E416EDDDD10D052
:1008200004011251010809E312C418F012C43EF089
:100830000001DAD6416AD0DD0401000101D0CFDD2C
:100840002DEF05F018C03EF004011151000A00011F
:1008500007E00A0A0DE0010A2DE00D0A3DE03ED056
:100860000401506B516B020E416E0001B5DD37D0B3
:100870003E521EE0010E3E5C036AF2CF3FF0F29E54
:10088000ACDC3FBEF28E016E0401145DD8A002D034
:1008900000010ED0036A1451230FE96E000E0320ED
:1008A000EA6EEFCF50F4010E416E000195DD01D0EC
:1008B00096DD15D03E520EE0036A04011451230F59
:1008C000E96E000E0320EA6E12C4EFFF416A0001D8
:1008D00083DD01D084DD03D0EADD01D080DD2DEFA2
:1008E00005F03F903EBE3F803E9E3FA011D03E505F
:1008F000080DF350416A406E040E4026000E41225E
:1009000040C0E9FF040E4124EA6E880EEF6E09D064
:100910003E50080DF350416AE96E040E4124EA6E20
:10092000EF6AF3EF04F03F903EBE3F803E9E3FA053
:1009300011D03E50080DF350416A406E040E40261F
:10094000000E412240C0E9FF040E4124EA6E840EED
:10095000EF6E0AD03E50080DF350416AE96E040E66
:100960004124EA6E840EEF6EF9EF04F03F903EBE34
:100970003F803E9E3FA011D03E50080DF350426A8A
:10098000416E040E4126000E422241C0E9FF040ED2
:100990004224EA6EEFCF40F00AD03E50080DF350EB
:1009A000426AE96E040E4224EA6EEFCF40F040AE98
:1009B00002D040B402D0000E01D0010E016E03EF50
:1009C00005F014C448F07BDC015228E00401115109
:1009D000010A000105E0020A09E0030A0DE01DD04A
:1009E00014C43EF07ED7416AF7DC18D014C43EF040
:1009F0009AD7416AF1DC12D00401506B516B14C4D8
:100A00003EF00001B3D7015204E0010E0401506F23
:100A10000001020E416EE0DC01D0E1DC2DEF05F0BB
:100A2000040111510001DBDC2DEF05F0176A040110
:100A300010517F0B000A000107E0010A07E0030ADA
:100A400007E0230A07E008D0A8D607D0FBD605D0D8
:100A5000B8D703D0E5D701D0C2DC55EF06F03E5041
:100A6000080DF350446AE96E040E4424EA6EEFCF99
:100A700040F03F50020806E140AC02D03F6A02D08D
:100A8000010E3F6E3F50030813E1840E406E3E504E
:100A9000080DF350446A436E040E4326000E4422B0
:100AA00043C0E9FF040E4424EA6E840EEF6E07D0C3
:100AB0003F2C03D0C80E406E02D0880E406ED890F6
:100AC0003E34036AF2CF43F0F29E83EC00F009005B
:100AD000F5CF03F043BEF28E416E03C042F03E50AC
:100AE000080DF350446A436E010E4324016E000E5C
:100AF0004420036E01C0E9FF040E0324EA6E41C0E6
:100B0000EFFF42A001D0408042A201D040823E507F
:100B1000080DF350446AE96E040E4424EA6E40C0A6
:100B2000EFFF1200036A4350700FE96E0F0E0320AF
:100B3000EA6EEF5212E04350080DF350456A446EDE
:100B4000040E4426000E452244C0E9FF040E45244D
:100B5000EA6EEFCF46F046AE02D0000E01D0010E95
:100B6000016E12003EC043F0DDDF015263E03E50F3
:100B7000080DF350446A436E040E4326000E4422CF
:100B8000010E4324016E000E4420036E01C0E9FFF4
:100B9000040E0324EA6E3FC0EFFF4150020817E144
:100BA0003E50080DF350446A436E040E4326000E77
:100BB000442243C0E9FF040E4424EA6EEFCF42F022
:100BC00042AC02D0416A02D0010E416E13D04150B6
:100BD000040810E13E50080DF350446AE96E040E1B
:100BE0004424EA6EEFCF42F042AC03D0010E416ED6
:100BF00001D0416A412C03D0C80E426E02D0880E4B
:100C0000426E40A001D0428040A201D042823E50BC
:100C1000080DF350446A436E040E4326000E44222E
:100C200043C0E9FF040E4424EA6E42C0EFFF010E08
:100C3000016E02D0000E016E12003E5200E1120061
:100C40003FC06EFF3F5203E0040E1C6E02D0020E46
:100C50001C6E30EF06F0186A176A1EC03FF0F0D71E
:100C60003DEF06F03E5209E1172C03D0F1EC01F004
:100C700004D017500208D8B4EED712001B303C6ED7
:100C80003C323C321F0E3C161B5241E10401005124
:100C90003C0B3D6E430E00173D5034081EE10451DD
:100CA000800B01E0046B0001C1D66D981D3C05D09E
:100CB0003E6A030E3F6ED3DE0ED03E6A020E3F6EDA
:100CC000CEDE1D50FE0807E03E6A406A1DC03FF0C0
:100CD000040E416E47DF18D004013D50040815E1B1
:100CE0003E6A0001AADF3E6A020E3F6EB8DE1D506A
:100CF000FE080AE01D3C01D007D03E6A406A1DC0D4
:100D00003FF0010E416E2EDF04011CD000011B508C
:100D100004080EE11D683E6AA5DF1D3C01D007D026
:100D20003E6A406A1DC03FF0020E416E1BDF09D0D3
:100D30001BB404D03CC03EF080DF03D03CC03EF08A
:100D400091DF04010001D6EF06F0A19A1C52D8B43D
:100D500033D06852D8B430D068A403D069B43CEF23
:100D600001F06DB229D068AA03D069BA54EF01F03E
:100D700068A203D069B25BEF01F068A003D069B04C
:100D8000CFEF01F068A803D069B8E4EF01F068ACD8
:100D900003D069BCE9EF01F03B6A68A608D069A6F8
:100DA00006D06CCF1BF002EC00F068D701D004D065
:100DB0003B503B2A0308F1E22AEF00F06D6A696AB2
:100DC000080E6F6E94503009946E1C6A166AF2BE5B
:100DD000168EF29EBBEC01F016BEF28EF1EF06F01D
:100DE000EDD716EF07F0166AF2BE168EF29EBBEC38
:100DF00001F016BEF28E6D6A140E6F6E696A6D8612
:100E0000010E1C6E07EF07F06DB601D0ECD71C2C5D
:100E10000BD06DBA09D0686A696AA08AC00EF21256
:100E2000110E696E020E1C6E1200DAD7EDDF1C5037
:100E30000208FCE1A6EF07F0185202E10400FCD71B
:100E4000A7EF07F01850016EA9EF07F0166AF2BE7F
:100E5000168EF29E2AC043F065DE16BEF28E015257
:100E600042E02A50080DF350336A326E040E3226E7
:100E7000000E3322020E3224016E000E3320036E68
:100E800001C0E9FF040E0324EA6EECCF31F0ED520D
:100E9000EFCF30F031C0EAFF30C0E9FF2CC0E2FFF5
:100EA0002BC0E1FF2EC002F02DC001F0015202E084
:100EB000022A02D0025206E0E6CFEEFF012EFCD756
:100EC000022EFAD7166AF2BE168EF29E2AC03EF0A5
:100ED0002EC040F02DC03FF02FC041F043DE16BEC3
:100EE000F28E015002D0000E016EE0EF07F0F86ABA
:100EF000D09E078EC150C00B0F09C16E070EB46E95
:100F0000936A8A6A946A8B6AF29CF29EF2BEFDD75B
:100F10009D909D9AF298F096F098C66A070EB46E6E
:100F20009250926E270E006E002EFED700D0B45065
:100F3000A19CB56AF18EC150C00B0D09C16EC050A5
:100F4000C00B0609C06EC09EC2806FD775D75CDF2C
:100F500079D7015235E0000E016EC250C30B01106B
:100F6000C26E270E006E002EFED700D0C282C2B223
:100F7000FED7C4CF24F0040E016EC250C30B011083
:100F8000C26E270E006E002EFED700D0C282C2B203
:100F9000FED7C4CF25F0936881CF28F028C026F073
:100FA000946882CF29F029C027F0010E2A6E2C6A9E
:100FB000240E2B6E2E6A040E2D6E020E2F6E46D757
:040FC000C6D703008D
:020000040030CA
:0E00000020C23E1E000581000FC00FE00F4021
:00000001FF
;PIC18F2550
;CRC=EECA  CREATED="09-ene.-17 12:19"
